{
  "contractName": "calculator",
  "abi": [
    {
      "anonymous": false,
      "inputs": [
        {
          "indexed": false,
          "internalType": "uint256",
          "name": "value",
          "type": "uint256"
        }
      ],
      "name": "Result",
      "type": "event"
    },
    {
      "inputs": [
        {
          "internalType": "uint256",
          "name": "num1",
          "type": "uint256"
        },
        {
          "internalType": "uint256",
          "name": "num2",
          "type": "uint256"
        }
      ],
      "name": "addNum",
      "outputs": [
        {
          "internalType": "uint256",
          "name": "",
          "type": "uint256"
        }
      ],
      "stateMutability": "nonpayable",
      "type": "function"
    },
    {
      "inputs": [
        {
          "internalType": "uint256",
          "name": "num1",
          "type": "uint256"
        },
        {
          "internalType": "uint256",
          "name": "num2",
          "type": "uint256"
        }
      ],
      "name": "subNum",
      "outputs": [
        {
          "internalType": "uint256",
          "name": "",
          "type": "uint256"
        }
      ],
      "stateMutability": "nonpayable",
      "type": "function"
    },
    {
      "inputs": [
        {
          "internalType": "uint256",
          "name": "num1",
          "type": "uint256"
        },
        {
          "internalType": "uint256",
          "name": "num2",
          "type": "uint256"
        }
      ],
      "name": "mulNum",
      "outputs": [
        {
          "internalType": "uint256",
          "name": "",
          "type": "uint256"
        }
      ],
      "stateMutability": "nonpayable",
      "type": "function"
    },
    {
      "inputs": [
        {
          "internalType": "uint256",
          "name": "num1",
          "type": "uint256"
        },
        {
          "internalType": "uint256",
          "name": "num2",
          "type": "uint256"
        }
      ],
      "name": "divNum",
      "outputs": [
        {
          "internalType": "uint256",
          "name": "",
          "type": "uint256"
        }
      ],
      "stateMutability": "nonpayable",
      "type": "function"
    }
  ],
  "bytecode": "0x6080604052348015600e575f5ffd5b506105ba8061001c5f395ff3fe608060405234801561000f575f5ffd5b506004361061004a575f3560e01c80636f827c3e1461004e5780637eaddeaa1461007e578063e4ada89c146100ae578063fb596d07146100de575b5f5ffd5b6100686004803603810190610063919061030d565b61010e565b604051610075919061035a565b60405180910390f35b6100986004803603810190610093919061030d565b61015f565b6040516100a5919061035a565b60405180910390f35b6100c860048036038101906100c3919061030d565b610234565b6040516100d5919061035a565b60405180910390f35b6100f860048036038101906100f3919061030d565b610285565b604051610105919061035a565b60405180910390f35b5f5f828461011c91906103a0565b90507fa9bb0fa194e939eadb11be8d62dd4a16e0f5e89f37fb73fa7f0f8446f1abba618160405161014d919061035a565b60405180910390a18091505092915050565b5f5f82116101a2576040517f08c379a00000000000000000000000000000000000000000000000000000000081526004016101999061042d565b60405180910390fd5b8183116101e4576040517f08c379a00000000000000000000000000000000000000000000000000000000081526004016101db90610495565b60405180910390fd5b5f82846101f191906104e0565b90507fa9bb0fa194e939eadb11be8d62dd4a16e0f5e89f37fb73fa7f0f8446f1abba6181604051610222919061035a565b60405180910390a18091505092915050565b5f5f82846102429190610510565b90507fa9bb0fa194e939eadb11be8d62dd4a16e0f5e89f37fb73fa7f0f8446f1abba6181604051610273919061035a565b60405180910390a18091505092915050565b5f5f82846102939190610543565b90507fa9bb0fa194e939eadb11be8d62dd4a16e0f5e89f37fb73fa7f0f8446f1abba61816040516102c4919061035a565b60405180910390a18091505092915050565b5f5ffd5b5f819050919050565b6102ec816102da565b81146102f6575f5ffd5b50565b5f81359050610307816102e3565b92915050565b5f5f60408385031215610323576103226102d6565b5b5f610330858286016102f9565b9250506020610341858286016102f9565b9150509250929050565b610354816102da565b82525050565b5f60208201905061036d5f83018461034b565b92915050565b7f4e487b71000000000000000000000000000000000000000000000000000000005f52601160045260245ffd5b5f6103aa826102da565b91506103b5836102da565b92508282039050818111156103cd576103cc610373565b5b92915050565b5f82825260208201905092915050565b7f4469766973696f6e206279207a65726f000000000000000000000000000000005f82015250565b5f6104176010836103d3565b9150610422826103e3565b602082019050919050565b5f6020820190508181035f8301526104448161040b565b9050919050565b7f6e756d31206d757374206265206c6172676572207468616e206e756d320000005f82015250565b5f61047f601d836103d3565b915061048a8261044b565b602082019050919050565b5f6020820190508181035f8301526104ac81610473565b9050919050565b7f4e487b71000000000000000000000000000000000000000000000000000000005f52601260045260245ffd5b5f6104ea826102da565b91506104f5836102da565b925082610505576105046104b3565b5b828204905092915050565b5f61051a826102da565b9150610525836102da565b925082820190508082111561053d5761053c610373565b5b92915050565b5f61054d826102da565b9150610558836102da565b9250828202610566816102da565b9150828204841483151761057d5761057c610373565b5b509291505056fea264697066735822122077011c562250f60130d7498f48a274e7479867bdab0734db4b0fca7141f4991464736f6c634300081e0033",
  "immutableReferences": {},
  "source": "pragma solidity ^0.8.0;\r\n\r\ncontract calculator {\r\n    event Result(uint value);\r\n\r\n    function addNum(uint num1, uint num2) public  returns (uint) {\r\n        uint res = num1 + num2;\r\n        emit Result(res);\r\n        return res;\r\n    }\r\n\r\n    function subNum(uint num1, uint num2) public  returns (uint) {\r\n        uint res = num1 - num2;\r\n        emit Result(res);\r\n        return res;\r\n    }\r\n\r\n    function mulNum(uint num1, uint num2) public  returns (uint) {\r\n        uint res = num1 * num2;\r\n        emit Result(res);\r\n        return res;\r\n    }\r\n\r\n    function divNum(uint num1, uint num2) public  returns (uint) {\r\n        require(num2 > 0, \"Division by zero\");\r\n        require(num1 > num2, \"num1 must be larger than num2\");\r\n        uint res = num1 / num2;\r\n        emit Result(res);\r\n        return res;\r\n    }\r\n}\r\n",
  "sourcePath": "C:\\Users\\Ashutosh Nigam\\OneDrive\\Desktop\\dapp\\calculator dapp backend\\contracts\\calculator.sol",
  "compiler": {
    "name": "solc",
    "version": "0.8.30+commit.73712a01.Emscripten.clang"
  },
  "schemaVersion": "3.4.16",
  "updatedAt": "2025-08-30T09:42:48.901Z",
  "networkType": "ethereum",
  "devdoc": {
    "kind": "dev",
    "methods": {},
    "version": 1
  },
  "userdoc": {
    "kind": "user",
    "methods": {},
    "version": 1
  }
}